{
  "_format": "hh-sol-artifact-1",
  "contractName": "SimpleNFTEscrow",
  "sourceName": "contracts/SimpleNFTEscrow.sol",
  "abi": [
    {
      "inputs": [],
      "name": "CriteriaNotMet",
      "type": "error"
    },
    {
      "inputs": [],
      "name": "InactiveDeposit",
      "type": "error"
    },
    {
      "inputs": [],
      "name": "InvalidNFT",
      "type": "error"
    },
    {
      "inputs": [],
      "name": "MetadataCheckFailed",
      "type": "error"
    },
    {
      "inputs": [],
      "name": "NotOwner",
      "type": "error"
    },
    {
      "inputs": [],
      "name": "ReentrancyGuardReentrantCall",
      "type": "error"
    },
    {
      "inputs": [],
      "name": "ZeroAddress",
      "type": "error"
    },
    {
      "anonymous": false,
      "inputs": [
        {
          "indexed": true,
          "internalType": "uint256",
          "name": "depositId",
          "type": "uint256"
        },
        {
          "indexed": true,
          "internalType": "address",
          "name": "owner",
          "type": "address"
        },
        {
          "indexed": true,
          "internalType": "address",
          "name": "nft",
          "type": "address"
        },
        {
          "indexed": false,
          "internalType": "uint256",
          "name": "tokenId",
          "type": "uint256"
        },
        {
          "indexed": false,
          "internalType": "string",
          "name": "requiredBallotId",
          "type": "string"
        },
        {
          "indexed": false,
          "internalType": "uint8",
          "name": "requiredGrade",
          "type": "uint8"
        }
      ],
      "name": "Deposited",
      "type": "event"
    },
    {
      "anonymous": false,
      "inputs": [
        {
          "indexed": true,
          "internalType": "uint256",
          "name": "targetDepositId",
          "type": "uint256"
        },
        {
          "indexed": true,
          "internalType": "uint256",
          "name": "takerDepositId",
          "type": "uint256"
        },
        {
          "indexed": true,
          "internalType": "address",
          "name": "taker",
          "type": "address"
        },
        {
          "indexed": false,
          "internalType": "address",
          "name": "targetOwner",
          "type": "address"
        },
        {
          "indexed": false,
          "internalType": "address",
          "name": "takerNft",
          "type": "address"
        },
        {
          "indexed": false,
          "internalType": "uint256",
          "name": "takerTokenId",
          "type": "uint256"
        }
      ],
      "name": "Swapped",
      "type": "event"
    },
    {
      "anonymous": false,
      "inputs": [
        {
          "indexed": true,
          "internalType": "uint256",
          "name": "depositId",
          "type": "uint256"
        },
        {
          "indexed": true,
          "internalType": "address",
          "name": "owner",
          "type": "address"
        }
      ],
      "name": "Withdrawn",
      "type": "event"
    },
    {
      "inputs": [
        {
          "internalType": "address",
          "name": "nft",
          "type": "address"
        },
        {
          "internalType": "uint256",
          "name": "tokenId",
          "type": "uint256"
        },
        {
          "internalType": "string",
          "name": "requiredBallotId",
          "type": "string"
        },
        {
          "internalType": "uint8",
          "name": "requiredGrade",
          "type": "uint8"
        }
      ],
      "name": "deposit",
      "outputs": [
        {
          "internalType": "uint256",
          "name": "depositId",
          "type": "uint256"
        }
      ],
      "stateMutability": "nonpayable",
      "type": "function"
    },
    {
      "inputs": [
        {
          "internalType": "uint256",
          "name": "",
          "type": "uint256"
        }
      ],
      "name": "deposits",
      "outputs": [
        {
          "internalType": "address",
          "name": "owner",
          "type": "address"
        },
        {
          "internalType": "address",
          "name": "nft",
          "type": "address"
        },
        {
          "internalType": "uint256",
          "name": "tokenId",
          "type": "uint256"
        },
        {
          "internalType": "bool",
          "name": "active",
          "type": "bool"
        },
        {
          "internalType": "string",
          "name": "requiredBallotId",
          "type": "string"
        },
        {
          "internalType": "uint8",
          "name": "requiredGrade",
          "type": "uint8"
        }
      ],
      "stateMutability": "view",
      "type": "function"
    },
    {
      "inputs": [
        {
          "internalType": "address",
          "name": "",
          "type": "address"
        },
        {
          "internalType": "address",
          "name": "",
          "type": "address"
        },
        {
          "internalType": "uint256",
          "name": "",
          "type": "uint256"
        },
        {
          "internalType": "bytes",
          "name": "",
          "type": "bytes"
        }
      ],
      "name": "onERC721Received",
      "outputs": [
        {
          "internalType": "bytes4",
          "name": "",
          "type": "bytes4"
        }
      ],
      "stateMutability": "pure",
      "type": "function"
    },
    {
      "inputs": [
        {
          "internalType": "uint256",
          "name": "targetDepositId",
          "type": "uint256"
        },
        {
          "internalType": "address",
          "name": "nft",
          "type": "address"
        },
        {
          "internalType": "uint256",
          "name": "tokenId",
          "type": "uint256"
        }
      ],
      "name": "swap",
      "outputs": [
        {
          "internalType": "uint256",
          "name": "takerDepositId",
          "type": "uint256"
        }
      ],
      "stateMutability": "nonpayable",
      "type": "function"
    },
    {
      "inputs": [
        {
          "internalType": "uint256",
          "name": "depositId",
          "type": "uint256"
        }
      ],
      "name": "withdraw",
      "outputs": [],
      "stateMutability": "nonpayable",
      "type": "function"
    }
  ],
  "bytecode": "0x60806040526001805534801561001457600080fd5b5060016000819055506118798061002c6000396000f3fe608060405234801561001057600080fd5b50600436106100575760003560e01c806311bd45ac1461005c578063150b7a021461008c5780632e1a7d4d146100bc57806343264349146100d8578063b02c43d014610108575b600080fd5b61007660048036038101906100719190610fda565b61013d565b6040516100839190611071565b60405180910390f35b6100a660048036038101906100a191906110e2565b6103fd565b6040516100b391906111a5565b60405180910390f35b6100d660048036038101906100d191906111c0565b610412565b005b6100f260048036038101906100ed91906111ed565b610606565b6040516100ff9190611071565b60405180910390f35b610122600480360381019061011d91906111c0565b610af2565b60405161013496959493929190611309565b60405180910390f35b6000610147610c10565b61015086610c56565b8573ffffffffffffffffffffffffffffffffffffffff166342842e0e3330886040518463ffffffff1660e01b815260040161018d93929190611371565b600060405180830381600087803b1580156101a757600080fd5b505af11580156101bb573d6000803e3d6000fd5b50505050600160008154809291906101d2906113d7565b9190505590506040518060c001604052803373ffffffffffffffffffffffffffffffffffffffff1681526020018773ffffffffffffffffffffffffffffffffffffffff16815260200186815260200160011515815260200185858080601f016020809104026020016040519081016040528093929190818152602001838380828437600081840152601f19601f8201169050808301925050505050505081526020018360ff168152506002600083815260200190815260200160002060008201518160000160006101000a81548173ffffffffffffffffffffffffffffffffffffffff021916908373ffffffffffffffffffffffffffffffffffffffff16021790555060208201518160010160006101000a81548173ffffffffffffffffffffffffffffffffffffffff021916908373ffffffffffffffffffffffffffffffffffffffff1602179055506040820151816002015560608201518160030160006101000a81548160ff021916908315150217905550608082015181600401908161035b919061165a565b5060a08201518160050160006101000a81548160ff021916908360ff1602179055509050508573ffffffffffffffffffffffffffffffffffffffff163373ffffffffffffffffffffffffffffffffffffffff16827f93e9da6e2be23186c446799406ece912fab1fd1ce948e421182fd45ce1d76c47888888886040516103e49493929190611768565b60405180910390a46103f4610d8f565b95945050505050565b600063150b7a0260e01b905095945050505050565b61041a610c10565b60006002600083815260200190815260200160002090503373ffffffffffffffffffffffffffffffffffffffff168160000160009054906101000a900473ffffffffffffffffffffffffffffffffffffffff1673ffffffffffffffffffffffffffffffffffffffff16146104ba576040517f30cd747100000000000000000000000000000000000000000000000000000000815260040160405180910390fd5b8060030160009054906101000a900460ff16610502576040517fc33e136700000000000000000000000000000000000000000000000000000000815260040160405180910390fd5b60008160030160006101000a81548160ff0219169083151502179055508060010160009054906101000a900473ffffffffffffffffffffffffffffffffffffffff1673ffffffffffffffffffffffffffffffffffffffff166342842e0e303384600201546040518463ffffffff1660e01b815260040161058493929190611371565b600060405180830381600087803b15801561059e57600080fd5b505af11580156105b2573d6000803e3d6000fd5b505050503373ffffffffffffffffffffffffffffffffffffffff16827f8c7cdad0d12a8db3e23561b42da6f10c8137914c97beff202213a410e1f520a360405160405180910390a350610603610d8f565b50565b6000610610610c10565b60006002600086815260200190815260200160002090508060030160009054906101000a900460ff1661066f576040517fc33e136700000000000000000000000000000000000000000000000000000000815260040160405180910390fd5b61067884610c56565b610683818585610d99565b600033905060008260000160009054906101000a900473ffffffffffffffffffffffffffffffffffffffff1690508573ffffffffffffffffffffffffffffffffffffffff166342842e0e8330886040518463ffffffff1660e01b81526004016106ee93929190611371565b600060405180830381600087803b15801561070857600080fd5b505af115801561071c573d6000803e3d6000fd5b5050505060016000815480929190610733906113d7565b9190505593506040518060c001604052808373ffffffffffffffffffffffffffffffffffffffff1681526020018773ffffffffffffffffffffffffffffffffffffffff16815260200186815260200160011515815260200184600401805461079a9061147d565b80601f01602080910402602001604051908101604052809291908181526020018280546107c69061147d565b80156108135780601f106107e857610100808354040283529160200191610813565b820191906000526020600020905b8154815290600101906020018083116107f657829003601f168201915b505050505081526020018460050160009054906101000a900460ff1660ff168152506002600086815260200190815260200160002060008201518160000160006101000a81548173ffffffffffffffffffffffffffffffffffffffff021916908373ffffffffffffffffffffffffffffffffffffffff16021790555060208201518160010160006101000a81548173ffffffffffffffffffffffffffffffffffffffff021916908373ffffffffffffffffffffffffffffffffffffffff1602179055506040820151816002015560608201518160030160006101000a81548160ff0219169083151502179055506080820151816004019081610915919061165a565b5060a08201518160050160006101000a81548160ff021916908360ff16021790555090505060008360030160006101000a81548160ff02191690831515021790555060006002600086815260200190815260200160002060030160006101000a81548160ff0219169083151502179055508260010160009054906101000a900473ffffffffffffffffffffffffffffffffffffffff1673ffffffffffffffffffffffffffffffffffffffff166342842e0e308486600201546040518463ffffffff1660e01b81526004016109eb93929190611371565b600060405180830381600087803b158015610a0557600080fd5b505af1158015610a19573d6000803e3d6000fd5b505050508573ffffffffffffffffffffffffffffffffffffffff166342842e0e3083886040518463ffffffff1660e01b8152600401610a5a93929190611371565b600060405180830381600087803b158015610a7457600080fd5b505af1158015610a88573d6000803e3d6000fd5b505050508173ffffffffffffffffffffffffffffffffffffffff1684887fc6ab252e8a2ae2fc4c3a844490c65a2e10f79c3052b16af94f0157ac1620a65a848a8a604051610ad893929190611371565b60405180910390a4505050610aeb610d8f565b9392505050565b60026020528060005260406000206000915090508060000160009054906101000a900473ffffffffffffffffffffffffffffffffffffffff16908060010160009054906101000a900473ffffffffffffffffffffffffffffffffffffffff16908060020154908060030160009054906101000a900460ff1690806004018054610b7a9061147d565b80601f0160208091040260200160405190810160405280929190818152602001828054610ba69061147d565b8015610bf35780601f10610bc857610100808354040283529160200191610bf3565b820191906000526020600020905b815481529060010190602001808311610bd657829003601f168201915b5050505050908060050160009054906101000a900460ff16905086565b600260005403610c4c576040517f3ee5aeb500000000000000000000000000000000000000000000000000000000815260040160405180910390fd5b6002600081905550565b600073ffffffffffffffffffffffffffffffffffffffff168173ffffffffffffffffffffffffffffffffffffffff1603610cbc576040517fd92e233d00000000000000000000000000000000000000000000000000000000815260040160405180910390fd5b8073ffffffffffffffffffffffffffffffffffffffff166301ffc9a77f80ac58cd000000000000000000000000000000000000000000000000000000006040518263ffffffff1660e01b8152600401610d1591906111a5565b602060405180830381865afa158015610d32573d6000803e3d6000fd5b505050506040513d601f19601f82011682018060405250810190610d5691906117d4565b610d8c576040517f0f3e2a3e00000000000000000000000000000000000000000000000000000000815260040160405180910390fd5b50565b6001600081905550565b60008273ffffffffffffffffffffffffffffffffffffffff1663afb0a369836040518263ffffffff1660e01b8152600401610dd49190611071565b602060405180830381865afa925050508015610e0e57506040513d601f19601f82011682018060405250810190610e0b9190611816565b60015b610e44576040517fbd0add0600000000000000000000000000000000000000000000000000000000815260040160405180910390fd5b809150508360050160009054906101000a900460ff1660ff168160ff1614610e98576040517f9858eb3000000000000000000000000000000000000000000000000000000000815260040160405180910390fd5b50505050565b600080fd5b600080fd5b600073ffffffffffffffffffffffffffffffffffffffff82169050919050565b6000610ed382610ea8565b9050919050565b610ee381610ec8565b8114610eee57600080fd5b50565b600081359050610f0081610eda565b92915050565b6000819050919050565b610f1981610f06565b8114610f2457600080fd5b50565b600081359050610f3681610f10565b92915050565b600080fd5b600080fd5b600080fd5b60008083601f840112610f6157610f60610f3c565b5b8235905067ffffffffffffffff811115610f7e57610f7d610f41565b5b602083019150836001820283011115610f9a57610f99610f46565b5b9250929050565b600060ff82169050919050565b610fb781610fa1565b8114610fc257600080fd5b50565b600081359050610fd481610fae565b92915050565b600080600080600060808688031215610ff657610ff5610e9e565b5b600061100488828901610ef1565b955050602061101588828901610f27565b945050604086013567ffffffffffffffff81111561103657611035610ea3565b5b61104288828901610f4b565b9350935050606061105588828901610fc5565b9150509295509295909350565b61106b81610f06565b82525050565b60006020820190506110866000830184611062565b92915050565b60008083601f8401126110a2576110a1610f3c565b5b8235905067ffffffffffffffff8111156110bf576110be610f41565b5b6020830191508360018202830111156110db576110da610f46565b5b9250929050565b6000806000806000608086880312156110fe576110fd610e9e565b5b600061110c88828901610ef1565b955050602061111d88828901610ef1565b945050604061112e88828901610f27565b935050606086013567ffffffffffffffff81111561114f5761114e610ea3565b5b61115b8882890161108c565b92509250509295509295909350565b60007fffffffff0000000000000000000000000000000000000000000000000000000082169050919050565b61119f8161116a565b82525050565b60006020820190506111ba6000830184611196565b92915050565b6000602082840312156111d6576111d5610e9e565b5b60006111e484828501610f27565b91505092915050565b60008060006060848603121561120657611205610e9e565b5b600061121486828701610f27565b935050602061122586828701610ef1565b925050604061123686828701610f27565b9150509250925092565b61124981610ec8565b82525050565b60008115159050919050565b6112648161124f565b82525050565b600081519050919050565b600082825260208201905092915050565b60005b838110156112a4578082015181840152602081019050611289565b60008484015250505050565b6000601f19601f8301169050919050565b60006112cc8261126a565b6112d68185611275565b93506112e6818560208601611286565b6112ef816112b0565b840191505092915050565b61130381610fa1565b82525050565b600060c08201905061131e6000830189611240565b61132b6020830188611240565b6113386040830187611062565b611345606083018661125b565b818103608083015261135781856112c1565b905061136660a08301846112fa565b979650505050505050565b60006060820190506113866000830186611240565b6113936020830185611240565b6113a06040830184611062565b949350505050565b7f4e487b7100000000000000000000000000000000000000000000000000000000600052601160045260246000fd5b60006113e282610f06565b91507fffffffffffffffffffffffffffffffffffffffffffffffffffffffffffffffff8203611414576114136113a8565b5b600182019050919050565b7f4e487b7100000000000000000000000000000000000000000000000000000000600052604160045260246000fd5b7f4e487b7100000000000000000000000000000000000000000000000000000000600052602260045260246000fd5b6000600282049050600182168061149557607f821691505b6020821081036114a8576114a761144e565b5b50919050565b60008190508160005260206000209050919050565b60006020601f8301049050919050565b600082821b905092915050565b6000600883026115107fffffffffffffffffffffffffffffffffffffffffffffffffffffffffffffffff826114d3565b61151a86836114d3565b95508019841693508086168417925050509392505050565b6000819050919050565b600061155761155261154d84610f06565b611532565b610f06565b9050919050565b6000819050919050565b6115718361153c565b61158561157d8261155e565b8484546114e0565b825550505050565b600090565b61159a61158d565b6115a5818484611568565b505050565b5b818110156115c9576115be600082611592565b6001810190506115ab565b5050565b601f82111561160e576115df816114ae565b6115e8846114c3565b810160208510156115f7578190505b61160b611603856114c3565b8301826115aa565b50505b505050565b600082821c905092915050565b600061163160001984600802611613565b1980831691505092915050565b600061164a8383611620565b9150826002028217905092915050565b6116638261126a565b67ffffffffffffffff81111561167c5761167b61141f565b5b611686825461147d565b6116918282856115cd565b600060209050601f8311600181146116c457600084156116b2578287015190505b6116bc858261163e565b865550611724565b601f1984166116d2866114ae565b60005b828110156116fa578489015182556001820191506020850194506020810190506116d5565b868310156117175784890151611713601f891682611620565b8355505b6001600288020188555050505b505050505050565b82818337600083830152505050565b60006117478385611275565b935061175483858461172c565b61175d836112b0565b840190509392505050565b600060608201905061177d6000830187611062565b818103602083015261179081858761173b565b905061179f60408301846112fa565b95945050505050565b6117b18161124f565b81146117bc57600080fd5b50565b6000815190506117ce816117a8565b92915050565b6000602082840312156117ea576117e9610e9e565b5b60006117f8848285016117bf565b91505092915050565b60008151905061181081610fae565b92915050565b60006020828403121561182c5761182b610e9e565b5b600061183a84828501611801565b9150509291505056fea2646970667358221220a6f5c72aea69882153fc46ab916b2fd45a0111e288b971aa9d2a717ed1c6905d64736f6c63430008140033",
  "linkReferences": {},
  "deployedLinkReferences": {}
}